:1000000019C01EC01DC01CC01BC01AC019C018C01A
:1000100017C016C015C012C013C012C011C010C046
:100020000BC00EC00DC00CC00BC00AC009C008C078
:1000300007C006C00C94C7000C9450000C947600C6
:10004000189501E007B9409A03D0409801D0FBCF42
:1000500080E090E0A6E081509040A040E1F7089554
:1000600000E00093B9000CE00093B80004E00093B6
:10007000BC00089504EA0093BC000091BC0007FF97
:10008000FCCF08950093BB0004E80093BC000091EE
:10009000BC0007FFFCCF089504E90093BC0008955D
:1000A0000F930FB70F931F932F9300910004102FFE
:1000B0001E7025B1217F212B25B9017018B11E7F3B
:1000C000102B18B909B100950C7310E002FD11E076
:1000D00003FD12E004FD13E005FD14E01093000899
:1000E0002F911F910F910FBF0F9118950F930FB77D
:1000F0000F931F933F93AF93BF93EF93FF931DD045
:10010000FF91EF91BF91AF913F911F910F910FBF61
:100110000F9118950F93AEDF08E7B4DF00E0B2DF70
:100120000F91B0DFB9DF08959BDFE4E7F1E019E15B
:100130000591F0DF1A95E1F7089501E2EBDF00E0A9
:10014000E9DF0FE7E7DF02E2E5DF00E0E3DF07E0FA
:10015000E1DF90DF08E796DF00E494DFA0E0B4E0A1
:1001600034E010E00D918EDF1A95E1F73A95C9F76A
:1001700093DF0895AED580A83FD300408D142000B2
:10018000A1C8DA1281CFD9F1DB40A4A6AF001124B7
:100190001FBE0FEF0DBF08E00EBFC0E0D1E044244A
:1001A00055246624772488249924AA24BB24A0E01B
:1001B000B4E0002734E011270D931A95E9F73A953A
:1001C000D1F7009300080EE004B901E007B9002759
:1001D0000AB90CE30BB905E005BD01E000936E0020
:1001E00094E0A0E0BFEF1197F1F79A95D1F79CDF6B
:1001F00000E0009380000CE00093810007E0009392
:10020000890000ED0093880002E000936F0078946D
:040210000C94210029
:00000001FF
