:1000000019C01EC01DC01CC01BC01AC019C018C01A
:1000100017C016C015C012C013C012C011C010C046
:100020000BC00EC00DC00CC00BC00AC009C008C078
:1000300007C006C00C94961E0C941F1E0C94451EFF
:1000400018950FEF0DBF08E00EBFC0E0D1E04424CB
:1000500055246624772488249924AA24BB240EE0FE
:1000600004B901E007B90E943600FFCF2E01499282
:1000700059926992799289929992A992B9920C2F88
:100080001D2F08501040602E712E0E94730C2A9173
:100090000A91009310022093110249925992699299
:1000A000799289929992A992B9920C2F1D2F08509A
:1000B0001040602E712E0E946C172A910A910093B5
:1000C0001002209311024992599269927992899271
:1000D0009992A992B9920C2F1D2F08501040602EB2
:1000E000712E0E94930E2A910A9100931002209380
:1000F0001102499259926992799289929992A992A0
:10010000B9920C2F1D2F08501040602E712E0E94A6
:10011000D1142A910A91009310022093110249925E
:1001200059926992799289929992A992B9920C2FD7
:100130001D2F08501040602E712E0E947F0B2A91B7
:100140000A910093100220931102499259926992E8
:10015000799289929992A992B9920C2F1D2F0850E9
:100160001040602E712E0E94DA002A910A910093AD
:1001700010022093110200E020E0099329932A91B4
:100180000A91D20118974D915C91E62DF72D0193BC
:100190002083E3012296D2011297AD90BC90D20148
:1001A00014978D909C90D20116976D907C90442E60
:1001B000552E08952E0100E020E0099329932A91FD
:1001C0000A9100952095099329932A910A91009507
:1001D0002095099329932A910A91022B09F001C0D5
:1001E000EACF00E020E0099329932A910A91D201F5
:1001F00018974D915C91E62DF72D01932083E30133
:100200002296D2011297AD90BC90D20114978D9096
:100210009C90D20116976D907C90442E552E089597
:100220002E0100E00993099300E00993099300E08F
:1002300020E0099329932A910A91D2010D932C93DE
:10024000D2010D912C9109932993D3010D912C91F9
:10025000099329932A910A913A911A91101B320B12
:1002600037FD05C000E020E00993299304C00FEF9B
:100270002FEF099329932A910A91009520950993CC
:1002800029932A910A91022B09F060C000E020E036
:10029000099329932A910A91D20112960D932C93D6
:1002A000D20112960D912C910993299300E520E03B
:1002B000099329932A910A913A911A91101B320BB2
:1002C00037FD05C000E020E00993299304C00FEF3B
:1002D0002FEF099329932A910A910095209509936C
:1002E00029932A910A91022B09F019C0D201129682
:1002F0000D912C910993299301E020E00993299312
:100300002A910A913A911A91010F231F0993299377
:100310002A910A91D20112960D932C93C1CFD2014A
:100320000D912C910993299301E020E009932993E1
:100330002A910A913A911A91010F231F0993299347
:100340002A910A91D2010D932C937ACF00E020E0FC
:10035000099329932A910A91D20118974D915C91A2
:10036000E62DF72D01932083E3012296D201129707
:10037000AD90BC90D20114978D909C90D2011697AD
:100380006D907C90442E552E08952E0149925992DD
:100390006992799289929992A992B9920C2F1D2F04
:1003A00008501040602E712E0E94DA002A910A91A6
:1003B000009310022093110200E020E0099329939A
:1003C0002A910A91D20118974D915C91E62DF72D53
:1003D00001932083E3012296D2011297AD90BC9045
:1003E000D20114978D909C90D20116976D907C90BD
:1003F000442E552E08952E01D3010D912C91099371
:10040000299300E020E0099329932A910A913A91D7
:100410001A91101B320B132B09F405C000E020E0E9
:100420000993299304C00FEF2FEF099329932A9181
:100430000A9100952095099329932A910A91022BFC
:1004400009F01FC001E020E0099329932A910A9145
:10045000D20118974D915C91E62DF72D01932083E1
:10046000E3012296D2011297AD90BC90D20114976D
:100470008D909C90D20116976D907C90442E552EB5
:100480000895D3010D912C910993299301E020E067
:10049000099329932A910A913A911A91101B320BD0
:1004A000132B09F405C000E020E00993299304C050
:1004B0000FEF2FEF099329932A910A910095209528
:1004C000099329932A910A91022B09F01FC002E097
:1004D00020E0099329932A910A91D20118974D910E
:1004E0005C91E62DF72D01932083E3012296D20142
:1004F0001297AD90BC90D20114978D909C90D20130
:1005000016976D907C90442E552E0895D3010D9131
:100510002C910993299302E020E0099329932A91D1
:100520000A913A911A91101B320B132B09F405C052
:1005300000E020E00993299304C00FEF2FEF099307
:1005400029932A910A9100952095099329932A913C
:100550000A91022B09F01FC004E020E009932993BF
:100560002A910A91D20118974D915C91E62DF72DB1
:1005700001932083E3012296D2011297AD90BC90A3
:10058000D20114978D909C90D20116976D907C901B
:10059000442E552E0895D3010D912C910993299342
:1005A00003E020E0099329932A910A913A911A9144
:1005B000101B320B132B09F405C000E020E0099357
:1005C000299304C00FEF2FEF099329932A910A91E1
:1005D00000952095099329932A910A91022B09F0FD
:1005E0001FC003E020E0099329932A910A91D201C8
:1005F00018974D915C91E62DF72D01932083E3012F
:100600002296D2011297AD90BC90D20114978D9092
:100610009C90D20116976D907C90442E552E089593
:10062000D3010D912C910993299304E020E00993C3
:1006300029932A910A913A911A91101B320B132B8C
:1006400009F405C000E020E00993299304C00FEFEE
:100650002FEF099329932A910A91009520950993E8
:1006600029932A910A91022B09F01FC001E020E092
:10067000099329932A910A91D20118974D915C917F
:10068000E62DF72D01932083E3012296D2011297E4
:10069000AD90BC90D20114978D909C90D20116978A
:1006A0006D907C90442E552E0895D3010D912C9180
:1006B0000993299305E020E0099329932A910A914F
:1006C0003A911A91101B320B132B09F405C000E06C
:1006D00020E00993299304C00FEF2FEF099329938A
:1006E0002A910A9100952095099329932A910A91BC
:1006F000022B09F01FC004E020E0099329932A91FE
:100700000A91D20118974D915C91E62DF72D019336
:100710002083E3012296D2011297AD90BC90D201C2
:1007200014978D909C90D20116976D907C90442EDA
:10073000552E0895D3010D912C910993299306E02C
:1007400020E0099329932A910A913A911A91101B5A
:10075000320B132B09F405C000E020E00993299324
:1007600004C00FEF2FEF099329932A910A91009566
:100770002095099329932A910A91022B09F01FC011
:1007800002E020E0099329932A910A91D201189757
:100790004D915C91E62DF72D01932083E301229684
:1007A000D2011297AD90BC90D20114978D909C907D
:1007B000D20116976D907C90442E552E0895D3014A
:1007C0000D912C910993299307E020E00993299337
:1007D0002A910A913A911A91101B320B132B09F4AA
:1007E00005C000E020E00993299304C00FEF2FEF2C
:1007F000099329932A910A910095209509932993A9
:100800002A910A91022B09F01FC003E020E009930E
:1008100029932A910A91D20118974D915C91E62D66
:10082000F72D01932083E3012296D2011297AD9018
:10083000BC90D20114978D909C90D20116976D9028
:100840007C90442E552E0895D3010D912C9109933F
:10085000299308E020E0099329932A910A913A917B
:100860001A91101B320B132B09F405C000E020E095
:100870000993299304C00FEF2FEF099329932A912D
:100880000A9100952095099329932A910A91022BA8
:1008900009F01FC004E020E0099329932A910A91EE
:1008A000D20118974D915C91E62DF72D019320838D
:1008B000E3012296D2011297AD90BC90D201149719
:1008C0008D909C90D20116976D907C90442E552E61
:1008D0000895D3010D912C910993299309E020E00B
:1008E000099329932A910A913A911A91101B320B7C
:1008F000132B09F405C000E020E00993299304C0FC
:100900000FEF2FEF099329932A910A9100952095D3
:10091000099329932A910A91022B09F01FC001E043
:1009200020E0099329932A910A91D20118974D91B9
:100930005C91E62DF72D01932083E3012296D201ED
:100940001297AD90BC90D20114978D909C90D201DB
:1009500016976D907C90442E552E0895D3010D91DD
:100960002C91099329930AE020E0099329932A9175
:100970000A913A911A91101B320B132B09F405C0FE
:1009800000E020E00993299304C00FEF2FEF0993B3
:1009900029932A910A9100952095099329932A91E8
:1009A0000A91022B09F01FC003E020E0099329936C
:1009B0002A910A91D20118974D915C91E62DF72D5D
:1009C00001932083E3012296D2011297AD90BC904F
:1009D000D20114978D909C90D20116976D907C90C7
:1009E000442E552E0895D3010D912C9109932993EE
:1009F0000BE020E0099329932A910A913A911A91E8
:100A0000101B320B132B09F405C000E020E0099302
:100A1000299304C00FEF2FEF099329932A910A918C
:100A200000952095099329932A910A91022B09F0A8
:100A30001FC002E020E0099329932A910A91D20174
:100A400018974D915C91E62DF72D01932083E301DA
:100A50002296D2011297AD90BC90D20114978D903E
:100A60009C90D20116976D907C90442E552E08953F
:100A7000D3010D912C91099329930CE020E0099367
:100A800029932A910A913A911A91101B320B132B38
:100A900009F405C000E020E00993299304C00FEF9A
:100AA0002FEF099329932A910A9100952095099394
:100AB00029932A910A91022B09F01FC004E020E03B
:100AC000099329932A910A91D20118974D915C912B
:100AD000E62DF72D01932083E3012296D201129790
:100AE000AD90BC90D20114978D909C90D201169736
:100AF0006D907C90442E552E0895D3010D912C912C
:100B0000099329930DE020E0099329932A910A91F2
:100B10003A911A91101B320B132B09F405C000E017
:100B200020E00993299304C00FEF2FEF0993299335
:100B30002A910A9100952095099329932A910A9167
:100B4000022B09F01FC002E020E0099329932A91AB
:100B50000A91D20118974D915C91E62DF72D0193E2
:100B60002083E3012296D2011297AD90BC90D2016E
:100B700014978D909C90D20116976D907C90442E86
:100B8000552E0895D3010D912C91099329930EE0D0
:100B900020E0099329932A910A913A911A91101B06
:100BA000320B132B09F405C000E020E009932993D0
:100BB00004C00FEF2FEF099329932A910A91009512
:100BC0002095099329932A910A91022B09F01FC0BD
:100BD00001E020E0099329932A910A91D201189704
:100BE0004D915C91E62DF72D01932083E301229630
:100BF000D2011297AD90BC90D20114978D909C9029
:100C0000D20116976D907C90442E552E089503E0E6
:100C100020E0099329932A910A91D20118974D91C6
:100C20005C91E62DF72D01932083E3012296D201FA
:100C30001297AD90BC90D20114978D909C90D201E8
:100C400016976D907C90442E552E08952E0100E04D
:100C50000993099300E00993099300E020E00993C8
:100C600029932A910A91D2010D932C9300E020E060
:100C7000099329932A910A91D20112960D932C93EC
:100C8000D3010D912C910993299301E020E0099360
:100C900029932A910A913A911A91101B320B132B26
:100CA00009F405C000E020E00993299304C00FEF88
:100CB0002FEF099329932A910A9100952095099382
:100CC00029932A910A91022B09F013C001E020E038
:100CD000099329932A910A91D2010D932C9300E84C
:100CE00020E4099329932A910A91D20112960D9337
:100CF0002C93D3010D912C910993299302E020E0CC
:100D0000099329932A910A913A911A91101B320B57
:100D1000132B09F405C000E020E00993299304C0D7
:100D20000FEF2FEF099329932A910A9100952095AF
:100D3000099329932A910A91022B09F013C002E02A
:100D400020E0099329932A910A91D2010D932C93C3
:100D500000E021E4099329932A910A91D201129685
:100D60000D932C93D3010D912C910993299303E0BA
:100D700020E0099329932A910A913A911A91101B24
:100D8000320B132B09F405C000E020E009932993EE
:100D900004C00FEF2FEF099329932A910A91009530
:100DA0002095099329932A910A91022B09F013C0E7
:100DB00004E020E0099329932A910A91D2010D932E
:100DC0002C9300E821E4099329932A910A91D201F6
:100DD00012960D932C93D3010D912C910993299385
:100DE00004E020E0099329932A910A913A911A91FB
:100DF000101B320B132B09F405C000E020E009930F
:100E0000299304C00FEF2FEF099329932A910A9198
:100E100000952095099329932A910A91022B09F0B4
:100E200013C008E020E0099329932A910A91D20186
:100E30000D932C9300E022E4099329932A910A91BF
:100E4000D20112960D932C9300E020E4099329938C
:100E5000D2010D912C91099329934992599269924B
:100E6000799289929992A992B9920C2F1D2F0C50C8
:100E70001040602E712E0E94F70C2A910A91009367
:100E8000100220931102D20112960D912C91099318
:100E9000299301E020E0099329932A910A91009572
:100EA00020950F5F2F4F0993299349925992699288
:100EB000799289929992A992B9920C2F1D2F0C5078
:100EC0001040602E712E0E94F70C2A910A91009317
:100ED00010022093110208E720E009932993499218
:100EE00059926992799289929992A992B9920C2F0A
:100EF0001D2F0A501040602E712E0E9410012A9161
:100F00000A91009310022093110200E020E409935B
:100F1000299300E020E0099329934992599269921C
:100F2000799289929992A992B9920C2F1D2F0C5007
:100F30001040602E712E0E94F70C2A910A910093A6
:100F4000100220931102D20112960D912C91099357
:100F5000299300E020E009932993499259926992DC
:100F6000799289929992A992B9920C2F1D2F0C50C7
:100F70001040602E712E0E94F70C2A910A91009366
:100F800010022093110208E220E00993299349926C
:100F900059926992799289929992A992B9920C2F59
:100FA0001D2F0A501040602E712E0E9410012A91B0
:100FB0000A91009310022093110200E020E00993AF
:100FC00029932A910A91D20118974D915C91E62DAF
:100FD000F72D01932083E3012296D2011297AD9061
:100FE000BC90D20114978D909C90D20116976D9071
:100FF0007C90442E552E08952E0100E0099309930C
:10100000499259926992799289929992A992B99248
:101010000C2F1D2F08501040602E712E0E94C00D05
:1010200000E020E0099329932A910A913A911A91BC
:10103000101B320B132B09F405C000E020E00993CC
:10104000299304C00FEF2FEF099329932A910A9156
:1010500000952095099329932A910A91022B09F072
:1010600001C0CECF49925992699279928992999210
:10107000A992B9920C2F1D2F08501040602E712E8E
:101080000E94C00D2A910A91D2010D932C9349928E
:1010900059926992799289929992A992B9920C2F58
:1010A0001D2F08501040602E712E0E94C00D00E0D0
:1010B00020E0099329932A910A913A911A91101BE1
:1010C000320B132B09F405C000E020E009932993AB
:1010D00004C00FEF2FEF099329932A910A910095ED
:1010E0002095099329932A910A91009520950993B7
:1010F00029932A910A91022B09F001C0C8CFD2018D
:101100000D912C91099329930FE220E009932993E3
:101110002A910A913A911A91101B320B37FD05C0A2
:10112000012F032B09F401C005C000E020E0099362
:10113000299304C00FEF2FEF099329932A910A9165
:1011400000952095099329932A910A91022B09F081
:1011500051C0D2010D912C91099329930AE320E00B
:10116000099329932A910A913A911A91101B320BF3
:1011700037FD05C000E020E00993299304C00FEF7C
:101180002FEF099329932A910A91009520950993AD
:1011900029932A910A91022B09F02CC0D2010D91BA
:1011A0002C910993299300E320E0099329932A9134
:1011B0000A913A911A91101B320B199339932A9183
:1011C0000A91D20118974D915C91E62DF72D01936C
:1011D0002083E3012296D2011297AD90BC90D201F8
:1011E00014978D909C90D20116976D907C90442E10
:1011F000552E0895D2010D912C91099329932A918E
:101200000A91D20118974D915C91E62DF72D01932B
:101210002083E3012296D2011297AD90BC90D201B7
:1012200014978D909C90D20116976D907C90442ECF
:10123000552E08952E0100E00993099300E00993CB
:10124000099300E00993099300E020E009932993B2
:101250002A910A91D2010D932C93D2010D912C91D8
:1012600009932993D3010D912C91099329932A91E4
:101270000A913A911A91101B320B37FD05C000E01C
:1012800020E00993299304C00FEF2FEF09932993CE
:101290002A910A9100952095099329932A910A9100
:1012A000022B09F04EC0D2010D912C910993299384
:1012B000499259926992799289929992A992B99296
:1012C0000C2F1D2F0A501040602E712E0E94FB0122
:1012D0002A910A91D20112960D932C93D201129663
:1012E0000D912C910993299349925992699279927F
:1012F00089929992A992B9920C2F1D2F0A501040F1
:10130000602E712E0E9426062A910A9100931002E7
:1013100020931102D2010D912C910993299301E0A0
:1013200020E0099329932A910A913A911A91010F89
:10133000231F099329932A910A91D2010D932C938B
:101340008CCF00E020E0099329932A910A91D201E1
:101350000D932C93D2010D912C9109932993D301D4
:101360000D912C91099329932A910A913A911A91FE
:10137000101B320B37FD05C000E020E009932993D4
:1013800004C00FEF2FEF099329932A910A9100953A
:101390002095099329932A910A91022B09F0B2C052
:1013A000D2010D912C9109932993499259926992F6
:1013B000799289929992A992B9920C2F1D2F0A5075
:1013C0001040602E712E0E94FB012A910A91D201D9
:1013D00012960D932C93499259926992799289921F
:1013E0009992A992B9920C2F1D2F08501040602E8F
:1013F000712E0E94FC072A910A91D20114960D9336
:101400002C93D20114960D912C9109932993499212
:1014100059926992799289929992A992B9920C2FD4
:101420001D2F0A501040602E712E0E9426062A9110
:101430000A910093100220931102D20114960D918B
:101440002C9109932993D20112960D912C91099315
:1014500029932A910A913A911A91101B320B132B5E
:1014600009F405C000E020E00993299304C00FEFC0
:101470002FEF099329932A910A91009520950993BA
:1014800029932A910A9100952095099329932A91ED
:101490000A91022B09F01FC000E020E00993299374
:1014A0002A910A91D20118974D915C91E62DF72D62
:1014B00001932083E3012296D2011297AD90BC9054
:1014C000D20114978D909C90D20116976D907C90CC
:1014D000442E552E0895D2010D912C9109932993F4
:1014E00001E020E0099329932A910A913A911A91F7
:1014F000010F231F099329932A910A91D2010D9379
:101500002C9328CF00E020E0099329932A910A9197
:1015100000952095099329932A910A91D201189751
:101520004D915C91E62DF72D01932083E3012296E6
:10153000D2011297AD90BC90D20114978D909C90DF
:10154000D20116976D907C90442E552E08952E0151
:1015500000E00993099300E020E0099329932A9180
:101560000A91D2010D932C93D2010D912C910993E4
:10157000299306E020E0099329932A910A913A9150
:101580001A91101B320B37FD05C000E020E00993D3
:10159000299304C00FEF2FEF099329932A910A9101
:1015A00000952095099329932A910A91022B09F01D
:1015B00087C000E020E4099329930FE020E009931D
:1015C0002993499259926992799289929992A99212
:1015D000B9920C2F1D2F0C501040602E712E0E94BE
:1015E000F70C2A910A9100931002209311020CE348
:1015F00020E00993299349925992699279928992AC
:101600009992A992B9920C2F1D2F0A501040602E6A
:10161000712E0E9410012A910A91009310022093CA
:10162000110200E020E40993299300E020E00993EF
:101630002993499259926992799289929992A992A1
:10164000B9920C2F1D2F0C501040602E712E0E944D
:10165000F70C2A910A9100931002209311020CE3D7
:1016600020E009932993499259926992799289923B
:101670009992A992B9920C2F1D2F0A501040602EFA
:10168000712E0E9410012A910A910093100220935A
:101690001102D2010D912C910993299301E020E0D0
:1016A000099329932A910A913A911A91010F231FC4
:1016B000099329932A910A91D2010D932C9354CF27
:1016C00000E020E0099329932A910A91D20118970A
:1016D0004D915C91E62DF72D01932083E301229635
:1016E000D2011297AD90BC90D20114978D909C902E
:1016F000D20116976D907C90442E552E08952E01A0
:1017000000E00993099300E00993099301E020E0C8
:10171000099329932A910A91D2010D932C9300E009
:1017200020E0099329932A910A9100952095099325
:1017300029932A910A9100952095099329932A913A
:101740000A91022B09F0B0C006E920E00993299321
:10175000499259926992799289929992A992B992F1
:101760000C2F1D2F0A501040602E712E0E94100168
:101770002A910A910093100220931102D2010D9137
:101780002C9109932993499259926992799289925D
:101790009992A992B9920C2F1D2F0A501040602ED9
:1017A000712E0E941A092A910A91D20112960D9364
:1017B0002C93D20112960D912C91099329932A9181
:1017C0000A9100952095099329932A910A91022B59
:1017D00009F04AC0D2010D912C910993299301E09F
:1017E00020E0099329932A910A913A911A91010FC5
:1017F000231F099329932A910A91D2010D932C93C7
:10180000D2010D912C91099329930FE020E00993C7
:1018100029932A910A913A911A91101B320B37FDA4
:1018200005C0012F032B09F401C005C000E020E032
:101830000993299304C00FEF2FEF099329932A915D
:101840000A9100952095099329932A910A91022BD8
:1018500009F009C00FE020E0099329932A910A9129
:10186000D2010D932C931FC049925992699279929B
:1018700089929992A992B9920C2F1D2F085010406D
:10188000602E712E0E94A70A2A910A9100931002DD
:101890002093110201E020E0099329932A910A91F3
:1018A000D2010D932C933BCF00E020E009932993C4
:1018B0002A910A91D20118974D915C91E62DF72D4E
:1018C00001932083E3012296D2011297AD90BC9040
:1018D000D20114978D909C90D20116976D907C90B8
:1018E000442E552E08952E0100E020E009932993FF
:1018F0002A910A91009300022093010200E028E05F
:10190000099329932A910A910093020220930302DA
:1019100000E020E0099329932A910A91D2011897B7
:101920004D915C91E62DF72D01932083E3012296E2
:10193000D2011297AD90BC90D20114978D909C90DB
:10194000D20116976D907C90442E552E08952E014D
:1019500000E009930993D3010D912C9109932993E8
:101960002A910A91D2010D932C93D2010D912C91C1
:101970000993299300E020E0099329932A910A9181
:101980003A911A91010F231F099329932A910A91E1
:10199000A02EB22ED501B03418F40D912C910AC0AE
:1019A000B03628F4B370B4600C9120E003C000910D
:1019B000000820E0099329932A910A91D2011897EF
:1019C0004D915C91E62DF72D01932083E301229642
:1019D000D2011297AD90BC90D20114978D909C903B
:1019E000D20116976D907C90442E552E08952E01AD
:1019F00000E009930993D3010D912C910993299348
:101A00002A910A91D2010D932C93D2010D912C9120
:101A10000993299300E020E0099329932A910A91E0
:101A20003A911A91010F231F09932993D30112961A
:101A30000D912C91099329932A910A9100931002F8
:101A4000209311022A910A91A02EB22E0091100229
:101A500020911102099329932A910A91D501B0345A
:101A600018F40D932C9305C0B03618F4B370B4601D
:101A70000C9300E020E0099329932A910A91D20166
:101A800018974D915C91E62DF72D01932083E3018A
:101A90002296D2011297AD90BC90D20114978D90EE
:101AA0009C90D20116976D907C90442E552E0895EF
:101AB0002E0100E009930993009102022091030294
:101AC000099329932A910A91D2010D932C930091A5
:101AD00002022091030209932993D3010D912C91C5
:101AE000099329932A910A913A911A91010F231F80
:101AF000099329932A910A910093020220930302E9
:101B0000D2010D912C91099329932A910A91D20126
:101B100018974D915C91E62DF72D01932083E301F9
:101B20002296D2011297AD90BC90D20114978D905D
:101B30009C90D20116976D907C90442E552E08955E
:101B40002E0100E020E0099329932A910A91D20105
:101B500018974D915C91E62DF72D01932083E301B9
:101B60002296D2011297AD90BC90D20114978D901D
:101B70009C90D20116976D907C90442E552E08951E
:101B80002E0100E020E60993299349925992699227
:101B9000799289929992A992B9920C2F1D2F0A508D
:101BA0001040602E712E0E94A70C2A910A91D2013A
:101BB00018974D915C91E62DF72D01932083E30159
:101BC0002296D2011297AD90BC90D20114978D90BD
:101BD0009C90D20116976D907C90442E552E0895BE
:101BE0002E0100E0099309934992599269927992E2
:101BF00089929992A992B9920C2F1D2F08501040EA
:101C0000602E712E0E94C00D00E020E00993299300
:101C10002A910A913A911A91101B320B132B09F455
:101C200005C000E020E00993299304C00FEF2FEFD7
:101C3000099329932A910A91009520950993299354
:101C40002A910A91022B09F001C0CECF49925992F4
:101C50006992799289929992A992B9920C2F1D2F2B
:101C600008501040602E712E0E94C00D2A910A91DA
:101C7000D2010D932C93499259926992799289924B
:101C80009992A992B9920C2F1D2F08501040602EE6
:101C9000712E0E94C00D00E020E0099329932A9143
:101CA0000A913A911A91101B320B132B09F405C0BB
:101CB00000E020E00993299304C00FEF2FEF099370
:101CC00029932A910A9100952095099329932A91A5
:101CD0000A9100952095099329932A910A91022B44
:101CE00009F001C0C8CFD2010D912C91099329931D
:101CF0002A910A91D20118974D915C91E62DF72D0A
:101D000001932083E3012296D2011297AD90BC90FB
:101D1000D20114978D909C90D20116976D907C9073
:101D2000442E552E08952E0100E020E009932993BA
:101D30002A910A9100952095099329932A910A9155
:101D4000009300022093010200E020E00993299310
:101D50002A910A91D20118974D915C91E62DF72DA9
:101D600001932083E3012296D2011297AD90BC909B
:101D7000D20114978D909C90D20116976D907C9013
:101D8000442E552E08952E0100E00993099300E09A
:101D900020E0099329932A910A91D2010D932C9363
:101DA000D2010D912C910993299300E020E209932F
:101DB00029932A910A913A911A91101B320B37FDFF
:101DC00005C000E020E00993299304C00FEF2FEF36
:101DD000099329932A910A910095209509932993B3
:101DE0002A910A91022B09F042C000E020E40993F5
:101DF0002993D2010D912C91099329932A910A914B
:101E00003A911A91010F231F0993299300E020E0D2
:101E10000993299349925992699279928992999258
:101E2000A992B9920C2F1D2F0C501040602E712ECC
:101E30000E94F70C2A910A9100931002209311023C
:101E4000D2010D912C910993299301E020E009938F
:101E500029932A910A913A911A91010F231F09930C
:101E600029932A910A91D2010D932C9399CF00E0E6
:101E700020E0099329932A910A91D20118974D9154
:101E80005C91E62DF72D01932083E3012296D20188
:101E90001297AD90BC90D20114978D909C90D20176
:101EA00016976D907C90442E552E08952E01D301E7
:101EB0000D912C91099329932A910A910093000284
:101EC0002093010200E020E0099329932A910A91CE
:101ED000D20118974D915C91E62DF72D0193208347
:101EE000E3012296D2011297AD90BC90D2011497D3
:101EF0008D909C90D20116976D907C90442E552E1B
:101F000008952E0100E00993099300E009930993D5
:101F100000E00993099300E00993099300E0099315
:101F2000099300E020E409932993D30112960D91BF
:101F30002C910993299300E220E009932993499277
:101F400059926992799289929992A992B9920C2F99
:101F50001D2F0C501040602E712E0E94CC182A911B
:101F60000A913A911A91010F231F09932993D301E2
:101F70000D912C910993299300E120E00993299375
:101F8000499259926992799289929992A992B992B9
:101F90000C2F1D2F0C501040602E712E0E94C9195D
:101FA0002A910A913A911A91010F231F09932993BB
:101FB0002A910A91D2010D932C93D3010D912C916A
:101FC000099329930FE020E0099329932A910A911C
:101FD0003A911A9101232323099329932A910A9173
:101FE000D20116960D932C9301E020E009932993DA
:101FF0002A910A91D20112960D932C9300E020E0D1
:10200000099329932A910A91D20118960D932C9342
:10201000D20118960D912C9109932993D20116960D
:102020000D912C91099329932A910A913A911A9131
:10203000101B320B37FD05C000E020E00993299307
:1020400004C00FEF2FEF099329932A910A9100956D
:102050002095099329932A910A91022B09F033C004
:10206000D20112960D912C9109932993D2011296C7
:102070000D912C91099329932A910A913A911A91E1
:10208000010F231F099329932A910A91D2011296D5
:102090000D932C93D20118960D912C9109932993AD
:1020A00001E020E0099329932A910A913A911A912B
:1020B000010F231F099329932A910A91D20118969F
:1020C0000D932C93A5CFD2010D912C9109932993B7
:1020D000499259926992799289929992A992B99268
:1020E0000C2F1D2F0A501040602E712E0E94A70C3D
:1020F0002A910A91D20114960D932C93009100021B
:1021000020910102099329932A910A910095209523
:10211000099329932A910A91022B09F01BC0D2013D
:1021200014960D912C9109932993D20112960D9139
:102130002C91099329932A910A913A911A91012B92
:10214000232B099329932A910A91D20114960D9376
:102150002C9320C0D20114960D912C9109932993B0
:10216000D20112960D912C91099329932A910A91EB
:1021700000952095099329932A910A913A911A91F1
:1021800001232323099329932A910A91D2011496BA
:102190000D932C93D2010D912C9109932993D20187
:1021A00014960D912C910993299349925992699211
:1021B000799289929992A992B9920C2F1D2F0C5065
:1021C0001040602E712E0E94F70C2A910A91009304
:1021D00010022093110200E020E0099329932A9134
:1021E0000A91D20118974D915C91E62DF72D01933C
:1021F0002083E3012296D2011297AD90BC90D201C8
:1022000014978D909C90D20116976D907C90442EDF
:10221000552E08952E01D30112960D912C910993FC
:102220002993D30116960D912C91099329932A9104
:102230000A913A911A91101B320B132B09F405C025
:1022400000E020E00993299304C00FEF2FEF0993DA
:1022500029932A910A9100952095099329932A910F
:102260000A91022B09F046C0D3010D912C910993DC
:102270002993D30114960D912C9109932993D3019D
:1022800012960D912C910993299349925992699232
:10229000799289929992A992B9920C2F1D2F0E5082
:1022A0001040602E712E0E944A122A910A910093CA
:1022B00010022093110200E020E0099329932A9153
:1022C0000A91D20118974D915C91E62DF72D01935B
:1022D0002083E3012296D2011297AD90BC90D201E7
:1022E00014978D909C90D20116976D907C90442EFF
:1022F000552E0895D3010D912C9109932993D30163
:1023000014960D912C91099329932A910A913A914F
:102310001A91101B320B132B09F405C000E020E0CA
:102320000993299304C00FEF2FEF099329932A9162
:102330000A9100952095099329932A910A91022BDD
:1023400009F046C0D3010D912C9109932993D30133
:1023500012960D912C9109932993D30116960D9104
:102360002C91099329934992599269927992899271
:102370009992A992B9920C2F1D2F0E501040602EE9
:10238000712E0E943E132A910A910093100220930D
:10239000110200E020E0099329932A910A91D201C9
:1023A00018974D915C91E62DF72D01932083E30161
:1023B0002296D2011297AD90BC90D20114978D90C5
:1023C0009C90D20116976D907C90442E552E0895C6
:1023D000D3010D912C9109932993D30112960D915C
:1023E0002C910993299349925992699279928992F1
:1023F0009992A992B9920C2F1D2F0C501040602E6B
:10240000712E0E94810F2A910A910093100220934D
:102410001102D30114960D912C9109932993D301A4
:1024200016960D912C91099329934992599269928C
:10243000799289929992A992B9920C2F1D2F0C50E2
:102440001040602E712E0E94810F2A910A910093F4
:1024500010022093110200E020E0099329932A91B1
:102460000A91D20118974D915C91E62DF72D0193B9
:102470002083E3012296D2011297AD90BC90D20145
:1024800014978D909C90D20116976D907C90442E5D
:10249000552E08952E0100E00993099300E0099359
:1024A000099300E009930993D3010D912C910993AD
:1024B0002993D30112960D912C91099329932A9176
:1024C0000A913A911A91101B320B37FD05C000E0BA
:1024D00020E00993299304C00FEF2FEF099329936C
:1024E0002A910A9100952095099329932A910A919E
:1024F000022B09F018C0D3010D912C910993299357
:102500002A910A91D20112960D932C93D30112961F
:102510000D912C91099329932A910A91D201149635
:102520000D932C9317C0D30112960D912C91099302
:1025300029932A910A91D20112960D932C93D301DB
:102540000D912C91099329932A910A91D201149605
:102550000D932C93D20112960D912C9109932993EE
:102560002A910A91D2010D932C93D2010D912C91B5
:1025700009932993D20114960D912C9109932993D3
:102580002A910A913A911A91101B320B37FD05C01E
:10259000012F032B09F401C005C000E020E00993DE
:1025A000299304C00FEF2FEF099329932A910A91E1
:1025B00000952095099329932A910A9100952095D9
:1025C000099329932A910A91022B09F038C0D2016C
:1025D0000D912C9109932993D30114960D912C916F
:1025E0000993299349925992699279928992999281
:1025F000A992B9920C2F1D2F0C501040602E712EF5
:102600000E94810F2A910A910093100220931102D7
:10261000D2010D912C910993299301E020E00993B7
:1026200029932A910A913A911A91010F231F099334
:1026300029932A910A91D2010D932C9396CF00E011
:1026400020E0099329932A910A91D20118974D917C
:102650005C91E62DF72D01932083E3012296D201B0
:102660001297AD90BC90D20114978D909C90D2019E
:1026700016976D907C90442E552E08952E0100E003
:102680000993099300E00993099300E009930993E2
:10269000D30112960D912C9109932993D30114968D
:1026A0000D912C91099329932A910A913A911A91AB
:1026B000101B320B37FD05C000E020E00993299381
:1026C00004C00FEF2FEF099329932A910A910095E7
:1026D0002095099329932A910A91022B09F019C098
:1026E000D30112960D912C91099329932A910A9165
:1026F000D20112960D932C93D30114960D912C9127
:10270000099329932A910A91D20114960D932C933F
:1027100018C0D30114960D912C91099329932A91F5
:102720000A91D20112960D932C93D30112960D911A
:102730002C91099329932A910A91D20114960D9311
:102740002C93D20112960D912C91099329932A91E1
:102750000A91D2010D932C93D2010D912C910993E2
:102760002993D20114960D912C91099329932A91C2
:102770000A913A911A91101B320B37FD05C0012FB7
:10278000032B09F401C005C000E020E00993299360
:1027900004C00FEF2FEF099329932A910A91009516
:1027A0002095099329932A910A91009520950993E0
:1027B00029932A910A91022B09F037C0D3010D9178
:1027C0002C9109932993D2010D912C91099329936E
:1027D000499259926992799289929992A992B99261
:1027E0000C2F1D2F0C501040602E712E0E94810F57
:1027F0002A910A910093100220931102D2010D91A7
:102800002C910993299301E020E0099329932A91BF
:102810000A913A911A91010F231F099329932A9142
:102820000A91D2010D932C9397CF00E020E00993F9
:1028300029932A910A91D20118974D915C91E62D26
:10284000F72D01932083E3012296D2011297AD90D8
:10285000BC90D20114978D909C90D20116976D90E8
:102860007C90442E552E08952E0100E00993099383
:10287000D30112960D912C91099329932A910A91D3
:10288000D2010D932C93D2010D912C910993299390
:10289000D30116960D912C91099329932A910A91AF
:1028A0003A911A91101B320B37FD05C0012F032BF3
:1028B00009F401C005C000E020E00993299304C099
:1028C0000FEF2FEF099329932A910A9100952095F4
:1028D000099329932A910A910095209509932993A8
:1028E0002A910A91022B09F03DC0D3010D912C9140
:1028F00009932993D30114960D912C91099329934F
:10290000D2010D912C910993299349925992699280
:10291000799289929992A992B9920C2F1D2F0E50FB
:102920001040602E712E0E944A122A910A91009343
:10293000100220931102D2010D912C910993299339
:1029400001E020E0099329932A910A913A911A9182
:10295000010F231F099329932A910A91D2010D9304
:102960002C9391CF00E020E0099329932A910A91BA
:10297000D20118974D915C91E62DF72D019320839C
:10298000E3012296D2011297AD90BC90D201149728
:102990008D909C90D20116976D907C90442E552E70
:1029A00008952E0100E020E0099329932A910A91CD
:1029B000009300022093010200E020E00993299394
:1029C0002A910A91009302022093030200E020E082
:1029D000099329932A910A91D20118974D915C91FC
:1029E000E62DF72D01932083E3012296D201129761
:1029F000AD90BC90D20114978D909C90D201169707
:102A00006D907C90442E552E08952E01D3010D918A
:102A10002C91099329932A910A9100930202209301
:102A20000302D30112960D912C91099329932A91B7
:102A30000A91009300022093010200E020E0099334
:102A400029932A910A91D20118974D915C91E62D14
:102A5000F72D01932083E3012296D2011297AD90C6
:102A6000BC90D20114978D909C90D20116976D90D6
:102A70007C90442E552E08952E0100910002209145
:102A80000102099329930091020220910302099304
:102A90002993499259926992799289929992A9922D
:102AA000B9920C2F1D2F0C501040602E712E0E94D9
:102AB000810F2A910A910093100220931102009134
:102AC0000002209101020993299302E020E009937A
:102AD00029932A910A913A911A91010F231F099380
:102AE00029932A910A9100930002209301020091F8
:102AF000000220910102099329930FE320E009933A
:102B000029932A910A913A911A91101B320B37FDA1
:102B100005C0012F032B09F401C005C000E020E02F
:102B20000993299304C00FEF2FEF099329932A915A
:102B30000A9100952095099329932A910A91022BD5
:102B400009F022C000E020E0099329932A910A911C
:102B500000930002209301020091020220910302DF
:102B60000993299302E020E0099329932A910A917D
:102B70003A911A91010F231F099329932A910A91DF
:102B8000009302022093030200E020E009932993BE
:102B90002A910A91D20118974D915C91E62DF72D5B
:102BA00001932083E3012296D2011297AD90BC904D
:102BB000D20114978D909C90D20116976D907C90C5
:102BC000442E552E08952E0100E020E0099329930C
:102BD0002A910A91009300022093010200910202BF
:102BE000209103020993299302E020E0099329939D
:102BF0002A910A913A911A91010F231F099329935F
:102C00002A910A91009302022093030200E020E03F
:102C1000099329932A910A91D20118974D915C91B9
:102C2000E62DF72D01932083E3012296D20112971E
:102C3000AD90BC90D20114978D909C90D2011697C4
:102C40006D907C90442E552E08952E01D3010D9148
:102C50002C910993299300E020E0099329932A916C
:102C60000A913A911A91101B320B37FD05C000E012
:102C700020E00993299304C00FEF2FEF09932993C4
:102C80002A910A9100952095099329932A910A91F6
:102C9000022B09F02CC00DE220E009932993499200
:102CA00059926992799289929992A992B9920C2F2C
:102CB0001D2F0A501040602E712E0E943C152A9143
:102CC0000A910093100220931102D3010D912C91CF
:102CD000099329932A910A91009520950F5F2F4F10
:102CE000099329932A910A91D3010D932C93D3012F
:102CF0000D912C910993299309E020E009932993E0
:102D00002A910A913A911A91101B320B37FD05C096
:102D1000012F032B09F401C005C000E020E0099356
:102D2000299304C00FEF2FEF099329932A910A9159
:102D300000952095099329932A910A91022B09F075
:102D40002FC0D3010D912C91099329930AE020E023
:102D50000993299349925992699279928992999209
:102D6000A992B9920C2F1D2F0C501040602E712E7D
:102D70000E94C919499259926992799289929992BD
:102D8000A992B9920C2F1D2F0A501040602E712E5F
:102D90000E9425162A910A91009310022093110295
:102DA00000E320E00993299349925992699279921C
:102DB00089929992A992B9920C2F1D2F0A50104016
:102DC000602E712E0E943C152A910A9100931002E8
:102DD0002093110200E020E0099329932A910A919F
:102DE000D20118974D915C91E62DF72D0193208328
:102DF000E3012296D2011297AD90BC90D2011497B4
:102E00008D909C90D20116976D907C90442E552EFB
:102E100008952E0100910002209101020993299347
:102E200000E020E0099329932A910A913A911A919E
:102E3000101B320B37FD05C0012F032B09F401C015
:102E400005C000E020E00993299304C00FEF2FEFA5
:102E5000099329932A910A91009520950993299322
:102E60002A910A91022B09F018C0009100022091CA
:102E700001020993299302E020E0099329932A9102
:102E80000A913A911A91101B320B199339932A9196
:102E90000A91009300022093010200E020E00993D0
:102EA00029932A910A91D20118974D915C91E62DB0
:102EB000F72D01932083E3012296D2011297AD9062
:102EC000BC90D20114978D909C90D20116976D9072
:102ED0007C90442E552E08952E0100E020E00993A9
:102EE00029932A910A91D20118974D915C91E62D70
:102EF000F72D01932083E3012296D2011297AD9022
:102F0000BC90D20114978D909C90D20116976D9031
:102F10007C90442E552E08952E01D3010D912C91B5
:102F20000993299300E020E0099329932A910A91BB
:102F30003A911A91101B320B37FD05C000E020E0DA
:102F40000993299304C00FEF2FEF099329932A9136
:102F50000A9100952095099329932A910A91022BB1
:102F600009F028C0D3010D912C91099329932A913E
:102F70000A91009520950F5F2F4F099329932A916D
:102F80000A91D20118974D915C91E62DF72D01938E
:102F90002083E3012296D2011297AD90BC90D2011A
:102FA00014978D909C90D20116976D907C90442E32
:102FB000552E0895D3010D912C91099329932A91AF
:102FC0000A91D20118974D915C91E62DF72D01934E
:102FD0002083E3012296D2011297AD90BC90D201DA
:102FE00014978D909C90D20116976D907C90442EF2
:102FF000552E08952E01D3010D912C9109932993FB
:10300000D30112960D912C91099329932A910A913B
:103010003A911A91101B320B37FD05C000E020E0F9
:103020000993299304C00FEF2FEF099329932A9155
:103030000A9100952095099329932A910A91022BD0
:1030400009F020C0D3010D912C91099329932A9165
:103050000A91D20118974D915C91E62DF72D0193BD
:103060002083E3012296D2011297AD90BC90D20149
:1030700014978D909C90D20116976D907C90442E61
:10308000552E0895D30112960D912C9109932993F1
:103090002A910A91D20118974D915C91E62DF72D56
:1030A00001932083E3012296D2011297AD90BC9048
:1030B000D20114978D909C90D20116976D907C90C0
:1030C000442E552E08952E01D3010D912C91099374
:1030D0002993D30112960D912C91099329932A914A
:1030E0000A913A911A91101B320B37FD05C000E08E
:1030F00020E00993299304C00FEF2FEF0993299340
:103100002A910A9100952095099329932A910A9171
:10311000022B09F021C0D30112960D912C91099335
:1031200029932A910A91D20118974D915C91E62D2D
:10313000F72D01932083E3012296D2011297AD90DF
:10314000BC90D20114978D909C90D20116976D90EF
:103150007C90442E552E0895D3010D912C91099306
:1031600029932A910A91D20118974D915C91E62DED
:10317000F72D01932083E3012296D2011297AD909F
:10318000BC90D20114978D909C90D20116976D90AF
:103190007C90442E552E08952E0100E0099309934A
:1031A00000E00993099300E00993099300E020E00F
:1031B000099329932A910A91D2010D932C93D3015B
:1031C0000D912C91099329932A910A91D20112967B
:1031D0000D932C9301E020E0099329932A910A9101
:1031E000D20114960D932C93D20114960D912C912B
:1031F0000993299300E020E0099329932A910A91E9
:103200003A911A91101B320B132B09F405C000E000
:1032100020E00993299304C00FEF2FEF099329931E
:103220002A910A9100952095099329932A910A9150
:1032300000952095099329932A910A91022B09F070
:1032400088C0D30112960D912C9109932993D20134
:1032500014960D912C91099329932A910A913A91F0
:103260001A91012323230993299300E020E0099375
:1032700029932A910A913A911A91101B320B132B20
:1032800009F405C000E020E00993299304C00FEF82
:103290002FEF099329932A910A910095209509937C
:1032A00029932A910A9100952095099329932A91AF
:1032B0000A91022B09F018C0D2010D912C910993AB
:1032C0002993D20112960D912C91099329932A9159
:1032D0000A913A911A91010F231F099329932A9178
:1032E0000A91D2010D932C93D20112960D912C913B
:1032F00009932993D20112960D912C910993299348
:103300002A910A913A911A91010F231F0993299347
:103310002A910A91D20112960D932C93D201149600
:103320000D912C9109932993D20114960D912C9112
:10333000099329932A910A913A911A91010F231F17
:10334000099329932A910A91D20114960D932C93F3
:103350004BCFD2010D912C91099329932A910A9177
:10336000D20118974D915C91E62DF72D01932083A2
:10337000E3012296D2011297AD90BC90D20114972E
:103380008D909C90D20116976D907C90442E552E76
:1033900008952E0100E00993099300E00993099331
:1033A000D30112960D912C910993299300E020E00E
:1033B000099329932A910A913A911A91101B320B81
:1033C000132B09F405C000E020E00993299304C001
:1033D0000FEF2FEF099329932A910A9100952095D9
:1033E000099329932A910A91022B09F01FC000E04A
:1033F00020E0099329932A910A91D20118974D91BF
:103400005C91E62DF72D01932083E3012296D201F2
:103410001297AD90BC90D20114978D909C90D201E0
:1034200016976D907C90442E552E089500E020E074
:10343000099329932A910A91D20112960D932C9304
:10344000D3010D912C910993299300E020E0099379
:1034500029932A910A913A911A91101B320B37FD48
:1034600005C000E020E00993299304C00FEF2FEF7F
:10347000099329932A910A910095209509932993FC
:103480002A910A91022B09F024C0D3010D912C91AD
:10349000099329932A910A91009520950F5F2F4F48
:1034A000099329932A910A91D3010D932C93D20168
:1034B00012960D912C91099329932A910A910095C6
:1034C0002095099329932A910A91D20112960D937E
:1034D0002C93D30112960D912C910993299300E01E
:1034E00020E0099329932A910A913A911A91101B8D
:1034F000320B37FD05C000E020E00993299304C09A
:103500000FEF2FEF099329932A910A9100952095A7
:10351000099329932A910A91022B09F026C0D3011D
:1035200012960D912C91099329932A910A91009555
:1035300020950F5F2F4F099329932A910A91D30168
:1035400012960D932C93D20112960D912C91099302
:1035500029932A910A9100952095099329932A91FC
:103560000A91D20112960D932C93D3010D912C91B7
:1035700009932993D30112960D912C9109932993C4
:10358000499259926992799289929992A992B992A3
:103590000C2F1D2F0C501040602E712E0E942E1BE0
:1035A0002A910A91D2010D932C93D20112960D917A
:1035B0002C91099329932A910A91009520950993BA
:1035C00029932A910A91022B09F028C0D2010D916A
:1035D0002C91099329932A910A91009520950F5FC8
:1035E0002F4F099329932A910A91D20118974D914F
:1035F0005C91E62DF72D01932083E3012296D20101
:103600001297AD90BC90D20114978D909C90D201EE
:1036100016976D907C90442E552E0895D2010D91F1
:103620002C91099329932A910A91D20118974D91CF
:103630005C91E62DF72D01932083E3012296D201C0
:103640001297AD90BC90D20114978D909C90D201AE
:1036500016976D907C90442E552E08952E0100E013
:1036600009930993D30112960D912C9109932993F3
:10367000D3010D912C91099329932A910A913A91A2
:103680001A91101B320B37FD05C0012F032B09F4D3
:1036900001C005C000E020E00993299304C00FEFAA
:1036A0002FEF099329932A910A9100952095099368
:1036B00029932A910A91022B09F01FC000E020E013
:1036C000099329932A910A91D20118974D915C91FF
:1036D000E62DF72D01932083E3012296D201129764
:1036E000AD90BC90D20114978D909C90D20116970A
:1036F0006D907C90442E552E0895D30112960D9115
:103700002C910993299300E020E0099329932A91B1
:103710000A913A911A91101B320B37FD05C000E057
:1037200020E00993299304C00FEF2FEF0993299309
:103730002A910A9100952095099329932A910A913B
:10374000022B09F01FC000E020E0099329932A9181
:103750000A91D20118974D915C91E62DF72D0193B6
:103760002083E3012296D2011297AD90BC90D20142
:1037700014978D909C90D20116976D907C90442E5A
:10378000552E0895D3010D912C9109932993D301BE
:1037900012960D912C9109932993D30112960D91B4
:1037A0002C91099329932A910A913A911A91010F28
:1037B000231F099329934992599269927992899288
:1037C0009992A992B9920C2F1D2F0C501040602E87
:1037D000712E0E942E1B2A910A91D2010D932C93D7
:1037E000D3010D912C9109932993D2010D912C9124
:1037F00009932993D2010D912C91099329932A9130
:103800000A913A911A91010F231F09932993D30129
:1038100012960D912C91099329934992599269928C
:10382000799289929992A992B9920C2F1D2F0C50DE
:103830001040602E712E0E94CC182A910A913A9164
:103840001A91101B320B19933993D30112960D91D3
:103850002C91099329932A910A913A911A91101B5C
:10386000320B37FD05C000E020E00993299304C026
:103870000FEF2FEF099329932A910A910095209534
:10388000099329932A910A91022B09F02DC0D201A4
:103890000D912C9109932993D2010D912C910993AB
:1038A00029932A910A913A911A91010F231F0993A2
:1038B00029932A910A91D20118974D915C91E62D96
:1038C000F72D01932083E3012296D2011297AD9048
:1038D000BC90D20114978D909C90D20116976D9058
:1038E0007C90442E552E0895D2010D912C91099370
:1038F0002993D2010D912C91099329932A910A9130
:103900003A911A91010F231F0993299301E020E0B6
:10391000099329932A910A913A911A91010F231F31
:10392000099329932A910A91D20118974D915C919C
:10393000E62DF72D01932083E3012296D201129701
:10394000AD90BC90D20114978D909C90D2011697A7
:103950006D907C90442E552E08952E0100E0099321
:10396000099300E00993099300E00993099300E0AB
:103970000993099300E00993099300E020E009937B
:1039800029932A910A91D2010D932C9307E020E00C
:10399000099329932A910A91D20112960D932C939F
:1039A00000E820E0099329932A910A91D201189600
:1039B0000D932C93D20112960D912C91099329937A
:1039C00000E020E0099329932A910A913A911A91F3
:1039D000101B320B37FD05C000E020E0099329934E
:1039E00004C00FEF2FEF099329932A910A910095B4
:1039F0002095099329932A910A910095209509937E
:103A000029932A910A91022B09F0D9C0D2010D9174
:103A10002C9109932993D20118960D912C91099319
:103A200029932A910A913A911A91010F231F099320
:103A300029932A910A91D20114960D932C93D201C5
:103A400014960D912C9109932993D20114960D91FE
:103A50002C9109932993499259926992799289926A
:103A60009992A992B9920C2F1D2F0C501040602EE4
:103A7000712E0E94CC182A910A91D20116960D93AC
:103A80002C93D20116960D912C9109932993D30171
:103A90000D912C91099329932A910A913A911A91A7
:103AA000101B320B37FD05C0012F032B09F401C099
:103AB00005C000E020E00993299304C00FEF2FEF29
:103AC000099329932A910A910095209509932993A6
:103AD000D20116960D912C910993299300E020E0D4
:103AE000099329932A910A913A911A91101B320B4A
:103AF00037FD05C0012F032B09F401C005C000E00C
:103B000020E00993299304C00FEF2FEF0993299325
:103B10002A910A913A911A91012323230993299317
:103B20002A910A9100952095099329932A910A9147
:103B3000022B09F00BC0D20114960D912C91099320
:103B400029932A910A91D2010D932C93D2011296B6
:103B50000D912C910993299301E020E00993299379
:103B60002A910A913A911A91101B320B19933993A9
:103B70002A910A91D20112960D932C93D201189694
:103B80000D912C910993299302E020E00993299348
:103B9000499259926992799289929992A992B9928D
:103BA0000C2F1D2F0C501040602E712E0E94C91931
:103BB0002A910A91D20118960D932C93FBCED20133
:103BC0000D912C91099329932A910A91D20118976A
:103BD0004D915C91E62DF72D01932083E301229610
:103BE000D2011297AD90BC90D20114978D909C9009
:103BF000D20116976D907C90442E552E089500E0CA
:103C00000093B9000CE00093B80004E00093BC00FE
:103C1000089504EA0093BC000091BC0007FFFCCFAC
:103C200008950093BB0004E80093BC000091BC0021
:103C300007FFFCCF089504E90093BC0008950F939B
:103C40000FB70F931F932F9300910004102F1E7036
:103C500025B1217F212B25B9017018B11E7F102BB2
:103C600018B909B100950C7310E002FD11E003FDD5
:103C700012E004FD13E005FD14E0109300082F91FD
:103C80001F910F910FBF0F9118950F930FB70F93BF
:103C90001F933F93AF93BF93EF93FF931DD0FF917B
:103CA000EF91BF91AF913F911F910F910FBF0F9176
:103CB00018950F93AEDF08E7B4DF00E0B2DF0F9195
:103CC000B0DFB9DF08959BDFE2E1FDE319E1059183
:103CD000F0DF1A95E1F7089501E2EBDF00E0E9DF9C
:103CE0000FE7E7DF02E2E5DF00E0E3DF07E0E1DF27
:103CF00090DF08E796DF00E494DFA0E0B4E034E072
:103D000010E00D918EDF1A95E1F73A95C9F793DF30
:103D10000895AED580A83FD300408D142000A1C8DF
:103D2000DA1281CFD9F1DB40A4A6AF0011241FBE67
:103D30000FEF0DBF08E00EBFC0E0D1E044245524D2
:103D40006624772488249924AA24BB24A0E0B4E024
:103D5000002734E011270D931A95E9F73A95D1F72A
:103D6000009300080EE004B901E007B900270AB982
:103D70000CE30BB905E005BD01E000936E0094E093
:103D8000A0E0BFEF1197F1F79A95D1F79CDF00E023
:103D9000009380000CE00093810007E0009389000D
:103DA00000ED0093880002E000936F0078940C947B
:023DB0002100F0
:00000001FF
